{
  "contractName": "TicketSystem",
  "abi": [
    {
      "anonymous": false,
      "inputs": [
        {
          "indexed": true,
          "internalType": "uint256",
          "name": "eventId",
          "type": "uint256"
        }
      ],
      "name": "EventCancelled",
      "type": "event"
    },
    {
      "anonymous": false,
      "inputs": [
        {
          "indexed": true,
          "internalType": "uint256",
          "name": "eventId",
          "type": "uint256"
        },
        {
          "indexed": false,
          "internalType": "string",
          "name": "name",
          "type": "string"
        },
        {
          "indexed": true,
          "internalType": "address",
          "name": "organizer",
          "type": "address"
        }
      ],
      "name": "EventCreated",
      "type": "event"
    },
    {
      "anonymous": false,
      "inputs": [
        {
          "indexed": true,
          "internalType": "uint256",
          "name": "ticketId",
          "type": "uint256"
        },
        {
          "indexed": true,
          "internalType": "uint256",
          "name": "eventId",
          "type": "uint256"
        },
        {
          "indexed": true,
          "internalType": "address",
          "name": "buyer",
          "type": "address"
        }
      ],
      "name": "TicketPurchased",
      "type": "event"
    },
    {
      "anonymous": false,
      "inputs": [
        {
          "indexed": true,
          "internalType": "uint256",
          "name": "ticketId",
          "type": "uint256"
        },
        {
          "indexed": true,
          "internalType": "address",
          "name": "from",
          "type": "address"
        },
        {
          "indexed": true,
          "internalType": "address",
          "name": "to",
          "type": "address"
        }
      ],
      "name": "TicketTransferred",
      "type": "event"
    },
    {
      "anonymous": false,
      "inputs": [
        {
          "indexed": true,
          "internalType": "uint256",
          "name": "ticketId",
          "type": "uint256"
        }
      ],
      "name": "TicketValidated",
      "type": "event"
    },
    {
      "inputs": [],
      "name": "eventCounter",
      "outputs": [
        {
          "internalType": "uint256",
          "name": "",
          "type": "uint256"
        }
      ],
      "stateMutability": "view",
      "type": "function",
      "constant": true
    },
    {
      "inputs": [
        {
          "internalType": "uint256",
          "name": "",
          "type": "uint256"
        }
      ],
      "name": "events",
      "outputs": [
        {
          "internalType": "uint256",
          "name": "eventId",
          "type": "uint256"
        },
        {
          "internalType": "string",
          "name": "name",
          "type": "string"
        },
        {
          "internalType": "string",
          "name": "venue",
          "type": "string"
        },
        {
          "internalType": "uint256",
          "name": "date",
          "type": "uint256"
        },
        {
          "internalType": "uint256",
          "name": "ticketPrice",
          "type": "uint256"
        },
        {
          "internalType": "uint256",
          "name": "totalTickets",
          "type": "uint256"
        },
        {
          "internalType": "uint256",
          "name": "ticketsSold",
          "type": "uint256"
        },
        {
          "internalType": "address",
          "name": "organizer",
          "type": "address"
        },
        {
          "internalType": "bool",
          "name": "isActive",
          "type": "bool"
        }
      ],
      "stateMutability": "view",
      "type": "function",
      "constant": true
    },
    {
      "inputs": [],
      "name": "ticketCounter",
      "outputs": [
        {
          "internalType": "uint256",
          "name": "",
          "type": "uint256"
        }
      ],
      "stateMutability": "view",
      "type": "function",
      "constant": true
    },
    {
      "inputs": [
        {
          "internalType": "uint256",
          "name": "",
          "type": "uint256"
        }
      ],
      "name": "tickets",
      "outputs": [
        {
          "internalType": "uint256",
          "name": "ticketId",
          "type": "uint256"
        },
        {
          "internalType": "uint256",
          "name": "eventId",
          "type": "uint256"
        },
        {
          "internalType": "address",
          "name": "owner",
          "type": "address"
        },
        {
          "internalType": "bool",
          "name": "isUsed",
          "type": "bool"
        },
        {
          "internalType": "uint256",
          "name": "purchaseTime",
          "type": "uint256"
        }
      ],
      "stateMutability": "view",
      "type": "function",
      "constant": true
    },
    {
      "inputs": [
        {
          "internalType": "string",
          "name": "_name",
          "type": "string"
        },
        {
          "internalType": "string",
          "name": "_venue",
          "type": "string"
        },
        {
          "internalType": "uint256",
          "name": "_date",
          "type": "uint256"
        },
        {
          "internalType": "uint256",
          "name": "_ticketPrice",
          "type": "uint256"
        },
        {
          "internalType": "uint256",
          "name": "_totalTickets",
          "type": "uint256"
        }
      ],
      "name": "createEvent",
      "outputs": [
        {
          "internalType": "uint256",
          "name": "",
          "type": "uint256"
        }
      ],
      "stateMutability": "nonpayable",
      "type": "function"
    },
    {
      "inputs": [
        {
          "internalType": "uint256",
          "name": "_eventId",
          "type": "uint256"
        }
      ],
      "name": "cancelEvent",
      "outputs": [],
      "stateMutability": "nonpayable",
      "type": "function"
    },
    {
      "inputs": [
        {
          "internalType": "uint256",
          "name": "_eventId",
          "type": "uint256"
        }
      ],
      "name": "buyTicket",
      "outputs": [
        {
          "internalType": "uint256",
          "name": "",
          "type": "uint256"
        }
      ],
      "stateMutability": "payable",
      "type": "function",
      "payable": true
    },
    {
      "inputs": [
        {
          "internalType": "uint256",
          "name": "_ticketId",
          "type": "uint256"
        }
      ],
      "name": "validateTicket",
      "outputs": [
        {
          "internalType": "bool",
          "name": "",
          "type": "bool"
        }
      ],
      "stateMutability": "nonpayable",
      "type": "function"
    },
    {
      "inputs": [
        {
          "internalType": "uint256",
          "name": "_ticketId",
          "type": "uint256"
        },
        {
          "internalType": "address",
          "name": "_to",
          "type": "address"
        }
      ],
      "name": "transferTicket",
      "outputs": [],
      "stateMutability": "nonpayable",
      "type": "function"
    },
    {
      "inputs": [
        {
          "internalType": "uint256",
          "name": "_eventId",
          "type": "uint256"
        }
      ],
      "name": "getEvent",
      "outputs": [
        {
          "components": [
            {
              "internalType": "uint256",
              "name": "eventId",
              "type": "uint256"
            },
            {
              "internalType": "string",
              "name": "name",
              "type": "string"
            },
            {
              "internalType": "string",
              "name": "venue",
              "type": "string"
            },
            {
              "internalType": "uint256",
              "name": "date",
              "type": "uint256"
            },
            {
              "internalType": "uint256",
              "name": "ticketPrice",
              "type": "uint256"
            },
            {
              "internalType": "uint256",
              "name": "totalTickets",
              "type": "uint256"
            },
            {
              "internalType": "uint256",
              "name": "ticketsSold",
              "type": "uint256"
            },
            {
              "internalType": "address",
              "name": "organizer",
              "type": "address"
            },
            {
              "internalType": "bool",
              "name": "isActive",
              "type": "bool"
            }
          ],
          "internalType": "struct TicketSystem.Event",
          "name": "",
          "type": "tuple"
        }
      ],
      "stateMutability": "view",
      "type": "function",
      "constant": true
    },
    {
      "inputs": [
        {
          "internalType": "uint256",
          "name": "_ticketId",
          "type": "uint256"
        }
      ],
      "name": "getTicket",
      "outputs": [
        {
          "components": [
            {
              "internalType": "uint256",
              "name": "ticketId",
              "type": "uint256"
            },
            {
              "internalType": "uint256",
              "name": "eventId",
              "type": "uint256"
            },
            {
              "internalType": "address",
              "name": "owner",
              "type": "address"
            },
            {
              "internalType": "bool",
              "name": "isUsed",
              "type": "bool"
            },
            {
              "internalType": "uint256",
              "name": "purchaseTime",
              "type": "uint256"
            }
          ],
          "internalType": "struct TicketSystem.Ticket",
          "name": "",
          "type": "tuple"
        }
      ],
      "stateMutability": "view",
      "type": "function",
      "constant": true
    },
    {
      "inputs": [
        {
          "internalType": "address",
          "name": "_user",
          "type": "address"
        }
      ],
      "name": "getMyTickets",
      "outputs": [
        {
          "internalType": "uint256[]",
          "name": "",
          "type": "uint256[]"
        }
      ],
      "stateMutability": "view",
      "type": "function",
      "constant": true
    }
  ],
  "bytecode": "0x608060405234801561001057600080fd5b50611632806100206000396000f3fe6080604052600436106100a75760003560e01c8063679ebf1a11610064578063679ebf1a1461020c57806367dd74ca1461022c5780636d1884e01461023f5780637dc379fa1461026c5780638aaf2686146102d45780638c4d59d01461030157600080fd5b8063054ae7df146100ac5780630b791430146100e15780633c2fc56c146101165780633f69babd1461014457806350b447121461016657806352c55db9146101f6575b600080fd5b3480156100b857600080fd5b506100cc6100c736600461112f565b610317565b60405190151581526020015b60405180910390f35b3480156100ed57600080fd5b506101016100fc36600461112f565b610454565b6040516100d89998979695949392919061118e565b34801561012257600080fd5b50610136610131366004611245565b6105bc565b6040519081526020016100d8565b34801561015057600080fd5b5061016461015f36600461112f565b61087f565b005b34801561017257600080fd5b506101c061018136600461112f565b600360208190526000918252604090912080546001820154600283015492909301549092916001600160a01b03811691600160a01b90910460ff169085565b6040805195865260208601949094526001600160a01b03909216928401929092529015156060830152608082015260a0016100d8565b34801561020257600080fd5b5061013660005481565b34801561021857600080fd5b506101646102273660046112e8565b6109c9565b61013661023a36600461112f565b610b4c565b34801561024b57600080fd5b5061025f61025a36600461112f565b610dc5565b6040516100d89190611314565b34801561027857600080fd5b5061028c61028736600461112f565b611007565b6040516100d8919081518152602080830151908201526040808301516001600160a01b0316908201526060808301511515908201526080918201519181019190915260a00190565b3480156102e057600080fd5b506102f46102ef3660046113b3565b6110c3565b6040516100d891906113d5565b34801561030d57600080fd5b5061013660015481565b600060015482106103435760405162461bcd60e51b815260040161033a90611419565b60405180910390fd5b600082815260036020908152604080832060018101548452600290925290912060078101546001600160a01b031633146103bf5760405162461bcd60e51b815260206004820152601b60248201527f4f6e6c79206f7267616e697a65722063616e2076616c69646174650000000000604482015260640161033a565b6002820154600160a01b900460ff161561040a5760405162461bcd60e51b815260206004820152600c60248201526b105b1c9958591e481d5cd95960a21b604482015260640161033a565b60028201805460ff60a01b1916600160a01b17905560405184907f57bbca7d06236724b863845d5ac4a5b2431ab54922f89f8644ec9e837b7b5e0490600090a25060019392505050565b6002602052600090815260409020805460018201805491929161047690611447565b80601f01602080910402602001604051908101604052809291908181526020018280546104a290611447565b80156104ef5780601f106104c4576101008083540402835291602001916104ef565b820191906000526020600020905b8154815290600101906020018083116104d257829003601f168201915b50505050509080600201805461050490611447565b80601f016020809104026020016040519081016040528092919081815260200182805461053090611447565b801561057d5780601f106105525761010080835404028352916020019161057d565b820191906000526020600020905b81548152906001019060200180831161056057829003601f168201915b50505060038401546004850154600586015460068701546007909701549596929591945092506001600160a01b0381169060ff600160a01b9091041689565b6000866105f85760405162461bcd60e51b815260206004820152600a6024820152694e616d6520656d70747960b01b604482015260640161033a565b42841161063d5760405162461bcd60e51b815260206004820152601360248201527244617465206d7573742062652066757475726560681b604482015260640161033a565b600083116106815760405162461bcd60e51b815260206004820152601160248201527005072696365206d757374206265203e203607c1b604482015260640161033a565b600082116106c75760405162461bcd60e51b815260206004820152601360248201527205469636b657473206d757374206265203e203606c1b604482015260640161033a565b6000805490506040518061012001604052808281526020018a8a8080601f016020809104026020016040519081016040528093929190818152602001838380828437600092019190915250505090825250604080516020601f8b0181900481028201810190925289815291810191908a908a908190840183828082843760009201829052509385525050506020808301899052604080840189905260608401889052608084018390523360a0850152600160c090940184905285835260028252909120835181559083015190918201906107a190826114e6565b50604082015160028201906107b690826114e6565b50606082015160038201556080820151600482015560a0820151600582015560c0820151600682015560e082015160079091018054610100909301511515600160a01b026001600160a81b03199093166001600160a01b039092169190911791909117905560008054908061082a836115a6565b9190505550336001600160a01b0316817f40fb05b814a900c99fa0a76d919dfdeaf3389540e4ca70f97ba40ca9a38f37978b8b60405161086b9291906115cd565b60405180910390a398975050505050505050565b60005481106108c65760405162461bcd60e51b8152602060048201526013602482015272115d995b9d08191bd95cdb89dd08195e1a5cdd606a1b604482015260640161033a565b600081815260026020526040902060078101546001600160a01b031633146109305760405162461bcd60e51b815260206004820152601960248201527f4f6e6c79206f7267616e697a65722063616e2063616e63656c00000000000000604482015260640161033a565b6007810154600160a01b900460ff1661098b5760405162461bcd60e51b815260206004820152601760248201527f4576656e7420616c72656164792063616e63656c6c6564000000000000000000604482015260640161033a565b60078101805460ff60a01b1916905560405182907fdc3cb569b066460f4a22dffa05317bdcce5d3826382ed49a21f13e5fa2063d3990600090a25050565b60015482106109ea5760405162461bcd60e51b815260040161033a90611419565b6001600160a01b038116610a325760405162461bcd60e51b815260206004820152600f60248201526e496e76616c6964206164647265737360881b604482015260640161033a565b600082815260036020526040902060028101546001600160a01b03163314610a885760405162461bcd60e51b81526020600482015260096024820152682737ba1037bbb732b960b91b604482015260640161033a565b6002810154600160a01b900460ff1615610ad25760405162461bcd60e51b815260206004820152600b60248201526a151a58dad95d081d5cd95960aa1b604482015260640161033a565b6002810180546001600160a01b038481166001600160a01b0319831681179093556000838152600460209081526040808320805460018101825590845291832090910188905551919092169291839187917fd15524263ae66f75c1e604c47db6085085110f23ef7322b355179ac5e3b0783a91a450505050565b60008181526002602052604081206007810154600160a01b900460ff16610ba85760405162461bcd60e51b815260206004820152601060248201526f4576656e74206e6f742061637469766560801b604482015260640161033a565b8060050154816006015410610bea5760405162461bcd60e51b815260206004820152600860248201526714dbdb19081bdd5d60c21b604482015260640161033a565b80600401543414610c2b5760405162461bcd60e51b815260206004820152600b60248201526a57726f6e6720707269636560a81b604482015260640161033a565b600180546040805160a0810182528281526020808201888152338385019081526000606085018181524260808701908152888352600395869052968220955186559251978501979097555160028401805492511515600160a01b026001600160a81b03199093166001600160a01b03929092169190911791909117905591519101556006830180549192610cbe836115a6565b909155505060018054906000610cd3836115a6565b9091555050336000818152600460209081526040808320805460018101825590845291832090910184905551869184917f94c5953e15f54d38b82a662bdd5739fc91af3a23d3ef7e67269dfaeee71a813c9190a460078201546040516000916001600160a01b03169034908381818185875af1925050503d8060008114610d76576040519150601f19603f3d011682016040523d82523d6000602084013e610d7b565b606091505b5050905080610dbd5760405162461bcd60e51b815260206004820152600e60248201526d14185e5b595b9d0819985a5b195960921b604482015260640161033a565b509392505050565b610e1f6040518061012001604052806000815260200160608152602001606081526020016000815260200160008152602001600081526020016000815260200160006001600160a01b031681526020016000151581525090565b6000548210610e665760405162461bcd60e51b8152602060048201526013602482015272115d995b9d08191bd95cdb89dd08195e1a5cdd606a1b604482015260640161033a565b600260008381526020019081526020016000206040518061012001604052908160008201548152602001600182018054610e9f90611447565b80601f0160208091040260200160405190810160405280929190818152602001828054610ecb90611447565b8015610f185780601f10610eed57610100808354040283529160200191610f18565b820191906000526020600020905b815481529060010190602001808311610efb57829003601f168201915b50505050508152602001600282018054610f3190611447565b80601f0160208091040260200160405190810160405280929190818152602001828054610f5d90611447565b8015610faa5780601f10610f7f57610100808354040283529160200191610faa565b820191906000526020600020905b815481529060010190602001808311610f8d57829003601f168201915b5050509183525050600382015460208201526004820154604082015260058201546060820152600682015460808201526007909101546001600160a01b03811660a0830152600160a01b900460ff16151560c09091015292915050565b6110446040518060a00160405280600081526020016000815260200160006001600160a01b03168152602001600015158152602001600081525090565b60015482106110655760405162461bcd60e51b815260040161033a90611419565b50600090815260036020818152604092839020835160a0810185528154815260018201549281019290925260028101546001600160a01b03811694830194909452600160a01b90930460ff1615156060820152910154608082015290565b6001600160a01b03811660009081526004602090815260409182902080548351818402810184019094528084526060939283018282801561112357602002820191906000526020600020905b81548152602001906001019080831161110f575b50505050509050919050565b60006020828403121561114157600080fd5b5035919050565b6000815180845260005b8181101561116e57602081850181015186830182015201611152565b506000602082860101526020601f19601f83011685010191505092915050565b60006101208b83528060208401526111a88184018c611148565b905082810360408401526111bc818b611148565b60608401999099525050608081019590955260a085019390935260c08401919091526001600160a01b031660e08301521515610100909101529392505050565b60008083601f84011261120e57600080fd5b50813567ffffffffffffffff81111561122657600080fd5b60208301915083602082850101111561123e57600080fd5b9250929050565b600080600080600080600060a0888a03121561126057600080fd5b873567ffffffffffffffff8082111561127857600080fd5b6112848b838c016111fc565b909950975060208a013591508082111561129d57600080fd5b506112aa8a828b016111fc565b989b979a50986040810135976060820135975060809091013595509350505050565b80356001600160a01b03811681146112e357600080fd5b919050565b600080604083850312156112fb57600080fd5b8235915061130b602084016112cc565b90509250929050565b60208152815160208201526000602083015161012080604085015261133d610140850183611148565b91506040850151601f1985840301606086015261135a8382611148565b92505060608501516080850152608085015160a085015260a085015160c085015260c085015160e085015260e08501516101006113a1818701836001600160a01b03169052565b90950151151593019290925250919050565b6000602082840312156113c557600080fd5b6113ce826112cc565b9392505050565b6020808252825182820181905260009190848201906040850190845b8181101561140d578351835292840192918401916001016113f1565b50909695505050505050565b602080825260149082015273151a58dad95d08191bd95cdb89dd08195e1a5cdd60621b604082015260600190565b600181811c9082168061145b57607f821691505b60208210810361147b57634e487b7160e01b600052602260045260246000fd5b50919050565b634e487b7160e01b600052604160045260246000fd5b601f8211156114e157600081815260208120601f850160051c810160208610156114be5750805b601f850160051c820191505b818110156114dd578281556001016114ca565b5050505b505050565b815167ffffffffffffffff81111561150057611500611481565b6115148161150e8454611447565b84611497565b602080601f83116001811461154957600084156115315750858301515b600019600386901b1c1916600185901b1785556114dd565b600085815260208120601f198616915b8281101561157857888601518255948401946001909101908401611559565b50858210156115965787850151600019600388901b60f8161c191681555b5050505050600190811b01905550565b6000600182016115c657634e487b7160e01b600052601160045260246000fd5b5060010190565b60208152816020820152818360408301376000818301604090810191909152601f909201601f1916010191905056fea264697066735822122007fbcca43eef466ba773f1e7d4d74507df3824cf064836c09ece577660e6ee9864736f6c63430008130033",
  "immutableReferences": {},
  "source": "// SPDX-License-Identifier: MIT\npragma solidity ^0.8.19;\n\n/**\n * @title TicketSystem\n * @dev Blockchain-based event ticketing system\n */\ncontract TicketSystem {\n    \n    // State variables\n    uint256 public eventCounter;\n    uint256 public ticketCounter;\n    \n    // Data structures\n    struct Event {\n        uint256 eventId;\n        string name;\n        string venue;\n        uint256 date;\n        uint256 ticketPrice;\n        uint256 totalTickets;\n        uint256 ticketsSold;\n        address organizer;\n        bool isActive;\n    }\n    \n    struct Ticket {\n        uint256 ticketId;\n        uint256 eventId;\n        address owner;\n        bool isUsed;\n        uint256 purchaseTime;\n    }\n    \n    // Storage\n    mapping(uint256 => Event) public events;\n    mapping(uint256 => Ticket) public tickets;\n    mapping(address => uint256[]) private userTickets;\n    \n    // Events\n    event EventCreated(uint256 indexed eventId, string name, address indexed organizer);\n    event EventCancelled(uint256 indexed eventId);\n    event TicketPurchased(uint256 indexed ticketId, uint256 indexed eventId, address indexed buyer);\n    event TicketValidated(uint256 indexed ticketId);\n    event TicketTransferred(uint256 indexed ticketId, address indexed from, address indexed to);\n    \n    // Functions\n    function createEvent(\n        string calldata _name,\n        string calldata _venue,\n        uint256 _date,\n        uint256 _ticketPrice,\n        uint256 _totalTickets\n    ) public returns (uint256) {\n        require(bytes(_name).length > 0, \"Name empty\");\n        require(_date > block.timestamp, \"Date must be future\");\n        require(_ticketPrice > 0, \"Price must be > 0\");\n        require(_totalTickets > 0, \"Tickets must be > 0\");\n        \n        uint256 eventId = eventCounter;\n        \n        events[eventId] = Event({\n            eventId: eventId,\n            name: _name,\n            venue: _venue,\n            date: _date,\n            ticketPrice: _ticketPrice,\n            totalTickets: _totalTickets,\n            ticketsSold: 0,\n            organizer: msg.sender,\n            isActive: true\n        });\n        \n        eventCounter++;\n        emit EventCreated(eventId, _name, msg.sender);\n        return eventId;\n    }\n\n    function cancelEvent(uint256 _eventId) public {\n        require(_eventId < eventCounter, \"Event doesn't exist\");\n        Event storage evt = events[_eventId];\n        require(msg.sender == evt.organizer, \"Only organizer can cancel\");\n        require(evt.isActive, \"Event already cancelled\");\n        evt.isActive = false;\n        emit EventCancelled(_eventId);\n    }\n    \n    function buyTicket(uint256 _eventId) public payable returns (uint256) {\n        Event storage evt = events[_eventId];\n        \n        require(evt.isActive, \"Event not active\");\n        require(evt.ticketsSold < evt.totalTickets, \"Sold out\");\n        require(msg.value == evt.ticketPrice, \"Wrong price\");\n        \n        uint256 ticketId = ticketCounter;\n        \n        tickets[ticketId] = Ticket({\n            ticketId: ticketId,\n            eventId: _eventId,\n            owner: msg.sender,\n            isUsed: false,\n            purchaseTime: block.timestamp\n        });\n        \n        evt.ticketsSold++;\n        ticketCounter++;\n        userTickets[msg.sender].push(ticketId);\n        \n        emit TicketPurchased(ticketId, _eventId, msg.sender);\n        \n        (bool sent, ) = evt.organizer.call{value: msg.value}(\"\");\n        require(sent, \"Payment failed\");\n        \n        return ticketId;\n    }\n    \n    function validateTicket(uint256 _ticketId) public returns (bool) {\n        require(_ticketId < ticketCounter, \"Ticket doesn't exist\");\n        Ticket storage ticket = tickets[_ticketId];\n        Event storage evt = events[ticket.eventId];\n        require(msg.sender == evt.organizer, \"Only organizer can validate\");\n        require(!ticket.isUsed, \"Already used\");\n        \n        ticket.isUsed = true;\n        emit TicketValidated(_ticketId);\n        return true;\n    }\n    \n    function transferTicket(uint256 _ticketId, address _to) public {\n        require(_ticketId < ticketCounter, \"Ticket doesn't exist\");\n        require(_to != address(0), \"Invalid address\");\n        \n        Ticket storage ticket = tickets[_ticketId];\n        require(ticket.owner == msg.sender, \"Not owner\");\n        require(!ticket.isUsed, \"Ticket used\");\n        \n        address previousOwner = ticket.owner;\n        ticket.owner = _to;\n        userTickets[_to].push(_ticketId);\n        \n        emit TicketTransferred(_ticketId, previousOwner, _to);\n    }\n    \n    // Getter functions\n    function getEvent(uint256 _eventId) public view returns (Event memory) {\n        require(_eventId < eventCounter, \"Event doesn't exist\");\n        return events[_eventId];\n    }\n    \n    function getTicket(uint256 _ticketId) public view returns (Ticket memory) {\n        require(_ticketId < ticketCounter, \"Ticket doesn't exist\");\n        return tickets[_ticketId];\n    }\n    \n    function getMyTickets(address _user) public view returns (uint256[] memory) {\n        return userTickets[_user];\n    }\n}\n",
  "sourcePath": "C:\\Users\\MASANCHILO\\ticketchain-platform\\contracts\\TicketSystem.sol",
  "compiler": {
    "name": "solc",
    "version": "0.8.19+commit.7dd6d404.Emscripten.clang"
  },
  "schemaVersion": "3.4.16",
  "updatedAt": "2026-05-06T08:30:56.780Z",
  "networkType": "ethereum",
  "devdoc": {
    "details": "Blockchain-based event ticketing system",
    "kind": "dev",
    "methods": {},
    "title": "TicketSystem",
    "version": 1
  },
  "userdoc": {
    "kind": "user",
    "methods": {},
    "version": 1
  }
}